:020000040800F2
:1000000058FF0120AD010008D57500080D27000834
:10001000D1750008D10A000863D80008000000006C
:1000200000000000000000000000000085A00008A3
:10003000111B000800000000017A000899A30008C5
:10004000C7010008C7010008C7010008C701000870
:10005000C7010008C7010008C7010008C701000860
:10006000C7010008C7010008C7010008C701000850
:10007000C7010008C7010008C7010008C701000840
:10008000C7010008C7010008C7010008C701000830
:10009000C7010008C7010008C7010008C701000820
:1000A000C7010008C7010008C7010008C701000810
:1000B000C7010008C701000805A40008C70100081F
:1000C000C7010008C7010008C7010008C7010008F0
:1000D000C7010008EDB60008C701000875B70008A1
:1000E000C7010008C7010008C7010008C7010008D0
:1000F000C7010008C7010008C7010008C7010008C0
:10010000C70100082D850008C7010008C7010008C5
:10011000C7010008C7010008C70100083DA4000886
:10012000C7010008C7010008C7010008C70100088F
:10013000C7010008C7010008C7010008C70100087F
:10014000C7010008C7010008C7010008657600085C
:10015000C7010008C7010008C7010008C70100085F
:10016000C7010008C7010008C7010008C70100084F
:10017000C7010008C7010008C7010008C70100083F
:10018000C7010008C7010008DFF80CD000F0E0FB51
:10019000004800470523010858FF012030BF72B610
:1001A000704762B6704780F30888704706488047FA
:1001B00006480047FEE7FEE7FEE7FEE7FEE7FEE74C
:1001C000FEE7FEE7FEE7FEE79DA3000889010008C1
:1001D0002DE9F05F0546002092469B46884606467C
:1001E000814640241BE0284641464746224600F00F
:1001F00058FA53465A46C01A914110D31146184630
:10020000224600F03FFA2D1A67EB01084F462246BE
:100210000120002100F036FA17EB00094E41201EA4
:10022000A4F10104DFDC484631462A464346BDE8D6
:10023000F09F2DE9F0410024061B254671F10006D0
:1002400005DA01240027D0EB070067EB0101161E39
:1002500073F1000605DA0027D2EB0702012567EBF0
:100260000303FFF7B5FF86460E4617469C46AC4291
:1002700004D00025D0EB050E65EB010624B100206B
:10028000D2EB000760EB030C704631463A466346FA
:10029000BDE8F08140EA01039B0703D009E008C9EB
:1002A000121F08C0042AFAD203E011F8013B00F83B
:1002B000013B521EF9D27047421E12F8013F002B3B
:1002C000FBD111F8013B02F8013B002BF9D170473B
:1002D00030B505462A460B4612F8010B13F8014BC0
:1002E00008B1A042F8D01CB1002802D06D1CF1E783
:1002F000284630BD421C10F8011B0029FBD1801A92
:10030000704710B5002200E0521C835C8C5CA34255
:1003100001D1002BF8D1D8B2E1B2401A10BD03468A
:1003200011F8012B00F8012B002AF9D1184670476B
:100330002DE9FE4F804681EA0300C00F0C46009075
:1003400021F0004123F00045B8EB0200A94105D29D
:100350004046214690461C460B46024623F000408C
:10036000104347D0270DC7F30A00C3F30A51029088
:10037000401A019040286BDAC3F3130040F4801B4D
:100380000098924620B10023D2EB030A63EB0B0BDB
:1003900001985946C0F14002504600F073F90646F4
:1003A0000D4650465946019A00F08BF910EB0800B3
:1003B0006141002487EA115284EAE7731A4340D06E
:1003C000009A62B3019A012A4FEA075215DC001B1A
:1003D00061EB02014FF0004202EA0752CDE9004210
:1003E000001C41F5801132462B4600F08BF903B01A
:1003F000BDE8F08F40462146F9E7001B61EB0201A2
:10040000001C41F5801300185B412018A2F500176D
:1004100047EB030140EAD570B6196D4111E06D0854
:100420004FEA360645EAC0754FEA0752001B61EBFA
:100430000201001C41F5801149084FEA3000001903
:10044000514132462B4603B0BDE8F04F00F04BB9A6
:100450000098012240000023D0EB020263EBE0731E
:10046000009821464FEAE074B8EB000061EB04010C
:10047000E9E783F000435BE781F0004158E72DE9AD
:10048000FE4F81EA030404F0004421F0004100948F
:100490004FF0000B23F0004350EA01045ED052EA13
:1004A00003045BD0C3F30A54C1F30A552C44A4F2ED
:1004B000F3340194A0FB0254C1F3130141F4801101
:1004C000C3F3130343F4801301FB024400FB034E08
:1004D000840A970A44EA815447EA8357A4FB0768D1
:1004E00002958D0A05FB07854FEA932C04FB0C54FB
:1004F0002705029D4FEA065847EA1637B5EB08056F
:100500006EEB070C870E920E47EA811742EA8312C0
:10051000A7FB0201B6EB0B0164EB00042B0D43EAD1
:100520000C335E1844EB1C50DA465146E7FB0201DF
:10053000C5F313044FEA0B3343EA14534FEA043272
:10054000019C43EA0603A4F10C040294009CCDE94B
:1005500000B400F0D7F803B0BDE8F08F00200146EA
:10056000F9E70EB5C10F80EAE0700844CA07002120
:1005700040F233438DE80E000A460B4600F0C2F805
:1005800003B000BD0EB540F2334102910021CDE928
:1005900000110A460B4600F0B5F803B000BDC1F3E8
:1005A0000A5210B5C1F3130140F2FF3341F4801138
:1005B0009A4201DA002010BD40F233439A42A2F27F
:1005C000334203DC524200F06CF810BD904010BD85
:1005D00000F0004230F000400AD0C10D01F560711A
:1005E000C0F3160042EA0151C208400711437047A8
:1005F000002001467047000030B5041E71F1000470
:1006000004DB4FF00044404264EB0101141E73F11F
:10061000000405DB1C464FF00043524263EB040329
:100620008B4208BF824230BD30B5041E71F1000418
:1006300004DB4FF00044404264EB0101141E73F1EF
:10064000000405DB1C464FF00043524263EB0403F9
:10065000994208BF904230BD30B50B46014600209C
:100660002022012409E021FA02F59D4205D303FA74
:1006700002F5491B04FA02F52844151EA2F10102F5
:10068000F1DC30BD202A04DB203A00FA02F1002020
:1006900070479140C2F1200320FA03F319439040C0
:1006A0007047202A04DB203A21FA02F0002170472B
:1006B00021FA02F3D040C2F12002914008431946CA
:1006C0007047202A06DBCB17203A41FA02F043EAB2
:1006D000E07306E041FA02F3D040C2F120029140FB
:1006E00008431946704710B5141E73F1000408DA68
:1006F000401C41F1000192185B411A4301D120F0E6
:10070000010010BD2DE9F04D92469B4611B1B1FAA2
:1007100081F202E0B0FA80F220329046FFF7B2FF99
:1007200004460F4640EA0A0041EA0B0153465A4686
:10073000084313D0114653EA010019D0C8F1400212
:100740005046FFF7AEFF05460E4650465946424614
:10075000FFF798FF084305D0012004E02046394602
:10076000BDE8F08D0020054346EAE0762C43374390
:100770000A986305E40AA0EB08000022FD0A44EA97
:1007800047540A3002D500200146E9E70105101957
:100790006941DDE9084500196941BDE8F04DA2E76E
:1007A0002DE9F04D81EA030404F0004B21F00045EF
:1007B00014464FF0000A23F0004150EA050220D011
:1007C00054EA01021DD0C5F30A570246C5F31303CC
:1007D000C1F31300C1F30A5640F4801543F48013AB
:1007E000A7EB0608101BD64608F2FD3873EB050090
:1007F00002D308F1010801E092185B41B8F1000F43
:1008000003DA00200146BDE8F08D00204FF480118E
:10081000064684460EE0171B73EB050705D3121B33
:1008200063EB050306434CEA010C49084FEA30002C
:1008300092185B4150EA0107EDD152EA030012D051
:1008400082EA040083EA0501084305D0101BAB418E
:1008500006D20122002306E000224FF0004302E00E
:100860006FF0010253101AEB06004CEB085110EB2D
:100870000A0041EB0B01BDE8F04DFFF734BF2DE955
:10088000F04D00231A461B1A8A4103DB0020014663
:10089000BDE8F08DC1F30A52C1F3130141F4801594
:1008A0004FF0000BD10702D100186D41521E0027F6
:1008B000044640F2FF11384601EB620A3E4680468C
:1008C000024600204FF48011FFF7EBFEC219714180
:1008D000BB1846EB0100B4EB030C75EB000C04D322
:1008E000E41A65EB000517460E46241908F10100CD
:1008F0006D4180463428E3DDF91946EB0600091BFB
:10090000A84103D24FF0FF32134601E00022134604
:100910001BEB070046EB0A51BDE8F04DFFF7E3BEC5
:10092000C1F30A52C1F3130140F2FF3341F48011C5
:100930009A4202DA00200146704740F233439A425D
:10094000A2F2334202DC5242FFF7ABBEFFF79ABE7F
:10095000064C074D06E0E06840F0010394E807000C
:1009600098471034AC42F6D3FFF712FC68660108D2
:100970008866010870B58C1810F8015B15F0070344
:1009800001D110F8013B2A1106D110F8012B03E028
:1009900010F8016B01F8016B5B1EF9D12B0705D430
:1009A0000023521E0DD401F8013BFAE710F8013B79
:1009B000CB1A921C03E013F8015B01F8015B521E95
:1009C000F9D5A142D8D3002070BD10B501F0C8FE02
:1009D00010BD2DE9F04107460C460026002509E030
:1009E00036023919491B491E88B200F008F806443E
:1009F000681CC5B2A542F3DB3046BDE8F08170B596
:100A00000446002601F064FF2546E11704EB11615E
:100A10000912A02202EB4101C8B201F025FF01F04A
:100A2000A3FFE11704EB11610912A4EB0121C8B285
:100A300001F01AFF01F098FF01F04AFFA12001F038
:100A400013FF01F091FF002001F0D8FE064601F0EF
:100A500065FF304670BD2DE9F04105460E4617464C
:100A6000002409E0E20026FA02F2D1B22A1990B27B
:100A700000F006F8601CC4B2BC42F3DBBDE8F081B4
:100A800070B504460E4601F023FF2546E11704EB3E
:100A900011610912A02202EB4101C8B201F0E4FE8B
:100AA00001F062FFE11704EB11610912A4EB0121CF
:100AB000C8B201F0D9FE01F057FF304601F0D4FE74
:100AC00001F052FF01F02AFF0A200FF0F5F970BD86
:100AD00000BFFEE710B502200FF00AFA10BD0000BB
:100AE00010B500200F4908600F48006820F440004E
:100AF0000D4908600846006840F480000860FFF770
:100B0000E9FF00200949C1F8AC02FFF7E3FF01202B
:100B100004490860FFF7DEFF00200549C1F88002A4
:100B200010BD00008082404200140240008042421A
:100B3000008040421CB50121222006F063FF012005
:100B400000908DF8040000208DF8060001208DF83B
:100B500007006946064801F0CDFA4FF400600090A6
:100B600001208DF804006946024801F0C3FA1CBD5B
:100B7000000402400014024010B500200F49086034
:100B80000F48006820F440000D49086008460068DE
:100B900040F480000860FFF79DFF01200949C1F87B
:100BA000AC02FFF797FF012004490860FFF792FFAE
:100BB00000200549C1F8800210BD0000808240423B
:100BC00000140240008042420080404270B5054659
:100BD00000241548006820F44000134908600846C6
:100BE000006808601E200FF083F9002611E0002045
:100BF0000E490860FFF76EFF01200D49C1F8800221
:100C00006006040E0B48006808B1601CC4B2701C7A
:100C1000C6B2082EEBDB15B9FFF7AEFF01E0FFF718
:100C20005FFF204670BD00000014024080824042F9
:100C3000008040422C82424270B50446134800684E
:100C400020F44000114908600846006840F4800024
:100C5000086000200E490860FFF73CFF002511E006
:100C6000E0090C4908606006040E01200A49C1F839
:100C70008002FFF72FFF002005490860FFF72AFFD9
:100C8000681CC5B2082DEBDB70BD000000140240EB
:100C900080824042AC8242420080404210B50F4800
:100CA000006820F440000D4908600846006840F4E0
:100CB0008000086001200A4908600A49C1F88002E2
:100CC0001E200FF015F9002005490860FFF702FF0C
:100CD00000200449C1F8800210BD00000014024049
:100CE000AC8242420080404210B50D48006820F4BA
:100CF00040000B4908600846006840F48000086026
:100D00000120084908601E200FF0F2F80020064973
:100D1000C1F8AC02FFF7DEFE01200449086010BDF7
:100D2000001402408082404200804242AC82424233
:100D300010B500241248006820F4400010490860F3
:100D400008460068086001200E4908600E49C1F895
:100D50008002FFF7BFFE09E0601CC4B2FA2C03DD7D
:100D6000FFF7C2FF012010BDFFF7B4FE0548803831
:100D700000680028F0D10549086000BFF3E70000D3
:100D800000140240AC8242420080404280824042D5
:100D900070B500254FF4803404E0802007F0B2FBEA
:100DA00000B103E0201EA4F10104F6D100BF0CB98C
:100DB000032070BD40F2FF5007F07AFB2846F8E7A9
:100DC00070B5044605E01648056805F0450000B119
:100DD00000E0F8E700BF042007F094FB20B10420F6
:100DE00007F066FB032070BD012007F08BFB20B1EC
:100DF000012007F05DFB0120F5E709482438006871
:100E0000A04201D01020EEE740F2FF5007F050FB67
:100E100003482038006808210840C0B2E3E700001A
:100E2000342C014070B500264FF4803505E01148A0
:100E3000046804F0450000B103E0281EA5F1010597
:100E4000F5D100BF15B104F0040028B10326042039
:100E500007F02EFB304670BD012007F053FB18B1A0
:100E60000126012007F024FB40F2FF5007F020FB91
:100E70003046F0E7342C014010B505E00B4804681B
:100E800004F0450000B100E0F8E700BF042007F0DF
:100E900039FB20B1042007F00BFB032010BD40F20A
:100EA000FF5007F005FB0020F8E70000342C01405C
:100EB0002DE9F04105460E464FF0000805E02048B8
:100EC000076807F0450000B100E0F8E700BF042024
:100ED00007F018FB28B1042007F0EAFA0320BDE868
:100EE000F081012007F00EFB20B1012007F0E0FAAD
:100EF0000120F4E7124824380068A84201D01020ED
:100F0000EDE740F2FF5007F0D3FA0D4820380468AF
:100F100004F4604018B9200C30804046DFE704F448
:100F2000005008B11320DAE704F4804008B1102023
:100F3000D5E704F4004008B10F20D0E74046CEE7E3
:100F4000342C014070B500264FF4803505E00F4881
:100F5000046804F0450000B103E0281EA5F1010576
:100F6000F5D100BF15B104F0040028B10326042018
:100F700007F09EFA304670BD04F0400018B100261C
:100F8000402007F095FA3046F5E70000342C014088
:100F900038B50446206940680090009820F00200AF
:100FA000801C009000992069416003200BF0A6FD91
:100FB00038BD70B506460C4604F08000802808D184
:100FC00004F07F0000EB800106F58E7000EBC10598
:100FD00007E004F07F0000EB800106F55D7000EB98
:100FE000C10504F07F00287004F08000C00968701B
:100FF000294630460CF0F4F8002070BD70B5064666
:101000000C4604F08000802808D104F07F0000EB3B
:10101000800106F58E7000EBC10505E004EB84014C
:1010200006F55D7000EBC1050020A87004F07F009C
:101030002870C4F3C0106870294630460CF0A8F838
:10104000002070BD70B505460C4604F08000802875
:1010500005D104F07F0128460CF0BCFA02E02846D6
:101060000CF092FA002070BD2DE9F04106460D46C5
:1010700090461F4605F08000802808D105F07F00CB
:1010800000EB800106F58E7000EBC10407E005F06F
:101090007F0000EB800106F55D7000EBC10405F0F8
:1010A0007F00207005F08000C0096070C4F80880DF
:1010B000E770607808B12078E080022F01D100202D
:1010C0002071214630460CF017F80020BDE8F08171
:1010D0002DE9F04105460E461746984606F07F007A
:1010E00000EB800105F55D7000EBC104E760C4F81A
:1010F00014800020A061607006F07F002070E87806
:10110000012800D12761207820B9214628460BF01C
:1011100017FF03E0214628460CF0C3F80020BDE885
:10112000F08108B500220092009A61F30A12009241
:1011300002691268009B1A4303691A6008BD70B502
:1011400006460C4604F08000802808D104F07F0099
:1011500000EB800106F58E7000EBC10505E004EBA5
:10116000840106F55D7000EBC1050120A87004F054
:101170007F002870C4F3C0106870294630460CF018
:101180005EF8002070BD2DE9F04107460D46164679
:10119000984605F07F0000EB800107F58E7000EBAC
:1011A000C1040120607005F07F002070E6602661B8
:1011B0000020A061C4F81480207820B92146384668
:1011C0000BF0BEFE03E0214638460CF06AF8002022
:1011D000BDE8F0811CB5044620460BF07CFEE068BB
:1011E000C068009020460CF01FFA03280BD10020A5
:1011F000A0704FF40070A080009820F4705000F5AB
:101200001050009009E00120A0704020A0800098BC
:1012100020F4705000F5A05000900098E168C8607C
:1012200000200190019820F4005000F5005001903A
:101230000198E168486101201CBD0000F8B5054631
:1012400000240020009028460CF02DFA064690E07D
:1012500006F0010000287DD0E1B2284600F002FB34
:101260000090009800F0010030B3012000FA04F76C
:101270002869406BB84329694863002000900098B2
:1012800020F00100401C009005F1180050F82400E7
:1012900000998160E1B23948006842682846904769
:1012A000E878012808D13CB940F21110405D0428CB
:1012B00002D128460BF0EFFE0098C0F3C00060B1E9
:1012C00000200090009820F008000830009005F100
:1012D000180050F82400009981600098C0F30010B5
:1012E00060B100200090009820F0100010300090B5
:1012F00005F1180050F82400009981600098C0F3AF
:10130000801060B100200090009820F04000403034
:10131000009005F1180050F82400009981600098B1
:10132000C0F3400060B100200090009820F002005F
:10133000801C009005F1180050F82400009981608D
:101340000098C0F3C01028B12146284600F09EFA4C
:10135000002000E00BE00090009820F0800080303A
:10136000009005F1180050F8240000998160641C79
:101370007608002E7FF46CAF0120F8BDDC0300205E
:101380007CB5044600250020019020460CF093F91E
:1013900006466FE006F00100002869D0E9B2204659
:1013A0000CF091F90190019800F00100C8B3002001
:1013B0000190019820F00100401C019004F15400BC
:1013C00050F8250001998160E078012817D104F1D7
:1013D000540050F825000069009005EB850104F5E4
:1013E0005D7000EBC10080680099C1F31201411AE1
:1013F00005EB850204F55D7000EBC2008161E9B286
:101400001E480068026820469047E078012808D10D
:101410003DB940F21110005D052802D120460BF0C5
:101420003AFE0198C0F3400060B10020019001989D
:1014300020F00200801C019004F1540050F82500B7
:10144000019981600198C0F3C00088B10B48006821
:1014500081682046884700200190019820F008000C
:101460000830019004F1540050F825000199816082
:101470006D1C7608002E8DD101207CBDDC03002080
:101480003EB50446A07A70B1D4F80C0100900098E3
:1014900020F002000090009820F0010000900099D8
:1014A000D4F80C01016000200190019820F00100A7
:1014B000401C019020694068019988432169486077
:1014C00008480068816920468847002002900298F9
:1014D00020F0004000F1004002900298E16848616D
:1014E00001203EBDDC0300207CB5044600200190B5
:1014F000019820F0100010300190E0688069019997
:101500008843E1688861E068006A0090009800F014
:101510000F0000EB800104F55D7000EBC105009841
:10152000C0F3434007282DD2DFE800F02C04051D4E
:101530001E2C1F0027E00098C0F30A1090B10098FD
:10154000C0F30A122046E9680CF0C7F8E868009971
:10155000C1F30A110844E860A8690099C1F30A11AF
:101560000844A8610FE00EE00DE0082204F2CC511F
:1015700020460CF0B2F8A8690099C1F30A1108449A
:10158000A86100E000BF00BFE068806901990843DE
:10159000E168886101207CBD38B5044608480068D0
:1015A000C1682046884700200090009820F008007D
:1015B000083000900098E1684861012038BD0000C3
:1015C000DC0300201FB50446002000904FF4897012
:1015D000005D0090234800684169204688472069E3
:1015E0008068019000200390039820F4006000F5CB
:1015F000006003900398E1684861A07A70B3019895
:1016000000F0010050B340F21510005D012825D113
:101610009DF80000032821D100200290029820F0BC
:101620000100401C0290D4F80C01006802990843A4
:10163000D4F80C110860029820F00200801C02907F
:10164000D4F80C01006802990843D4F80C11086022
:101650000548006840F0060003490860012004B016
:1016600010BD0000DC03002010ED00E030B587B0B5
:10167000044600200290069005900490039001908B
:10168000029820F00100401C0290206940680299F5
:10169000884321694860002120460BF09BFF00250C
:1016A0000BE0FF2104F1180050F82500816004F1DF
:1016B000540050F8250081606D1C6078A842F0D875
:1016C0004FF0FF312069816106986FF30F00401CD5
:1016D0000690069880B200F5803006900699206941
:1016E000C161059820F0080008300590059820F0A9
:1016F0000100401C0590059820F00200801C059018
:10170000059920694161049820F00100401C049073
:10171000049820F0080008300490049820F002009B
:10172000801C04900499206901612069006803907D
:10173000039820F4FE60039003992069016020461D
:101740000BF0A9FC00200190019820F4805000F5D6
:10175000805001900198E16848610448006801697F
:1017600020468847012007B030BD0000DC03002080
:101770002DE9F04106460F46394630460BF0C2FFD0
:1017800001214FF4897081550021801C815500256D
:1017900011E005EB850106F58E7000EBC104012018
:1017A00060702570E5800020E0704020A06000207F
:1017B000E06060616D1C7078A842EAD8002510E0F6
:1017C00005EB850106F55D7000EBC104002060703B
:1017D0002570E580E0704020A0600020E06060613E
:1017E0006D1C7078A842EBD830460BF063FB304696
:1017F0000BF090F9002130460BF0ECFF30460BF077
:101800001CFA30460BF0AFFEBDE8F08138B5044657
:101810000020009007480068C1692046884700986A
:1018200020F4801000F5801000900098E168486175
:10183000012038BDDC03002038B5044600200090AC
:1018400007480068016A20468847009820F4001085
:1018500000F5001000900098E1684861012038BD53
:10186000DC03002030B5024615692B6915696C6BE5
:1018700024FA01F505F0010543EAC51302F1180544
:1018800055F82150AD6805EA030030BD2DE9F84355
:1018900007460E4600250020009006EB860107F55E
:1018A0008E7000EBC104D4E90501451AA068A84276
:1018B00000D2A568E81C4FEA900807F1180050F81C
:1018C0002600806900901BE0D4E90501451AA06854
:1018D000A84200D2A568E81C4FEA9008ABB2F2B269
:1018E0003846E1680BF09DFFE0682844E060A0699D
:1018F0002844A06107F1180050F826008069009084
:10190000009880B2404506D9D4E90510884202D239
:1019100060690028D8D10120BDE8F88321B10268B0
:1019200042F00102026003E0026822F0010202605C
:1019300070470000016821F0010101600021016091
:1019400041608160C1600161212141614A49884251
:1019500004D13D21484A103A91608CE04649183143
:10196000884205D14FF47461434A103A916082E095
:1019700041493031884205D14FF474113E4A103A42
:10198000916078E03C494831884205D14FF074615C
:10199000394A103A91606EE037496031884204D18B
:1019A0003649354A103AD16065E03349783188428A
:1019B00004D13349304A103AD1605CE02E4990316D
:1019C000884204D12F492C4A103AD16053E02A4969
:1019D000A831884205D14FF03D51274A103AD160D5
:1019E00049E02949884204D13D21274A083A11603B
:1019F00041E025491831884205D14FF47461224AEB
:101A0000083A116037E020493031884205D14FF45F
:101A100074111D4A083A11602DE01B494831884273
:101A200005D14FF07461184A083A116023E0164955
:101A30006031884204D11149134A121F11601AE023
:101A400011497831884204D10D490F4A121F1160A3
:101A500011E00D499031884204D10A490A4A121F07
:101A6000116008E00849A831884204D14FF03D5187
:101A7000054A121F11607047106002403D000020AF
:101A8000400F002000003D201064024021B1026898
:101A900042F02002026003E0026822F020020260AD
:101AA0007047014600200A6802F001020AB10120D5
:101AB00000E000207047000010B500220268134BC0
:101AC0001A40CC680B6823434C6923438C69234339
:101AD000CC6923430C6A23434C6A23438C6A234317
:101AE0004C6B23438C6B23431A430260426922F000
:101AF0000702D1E90B3423431A4342610B69436067
:101B00004B6883608B68C36010BD00003F801CF091
:101B10007047000051B18200A2F1C042126842F049
:101B200001038200A2F1C042136009E08200A2F129
:101B3000C0421268034B1A408300A3F1C0431A60ED
:101B400070470000FEFF0F00D0E901121143C26888
:101B50001143026911434269114382691143C26909
:101B60001143026A1143426A1143826A1143C26AF5
:101B70001143026B114302689200A2F1C04211604E
:101B8000816808290BD101688900A1F1C041096869
:101B900041F0400201688900A1F1C0410A60416B37
:101BA0000968426B526841EA0211426B926841EA4D
:101BB0000221426B928941EA0241426B128A41EA58
:101BC0000251426B127D41EA0261426B92691143FC
:101BD0000268521C9200A2F1C0421160C16AB1F5C4
:101BE000804F1BD1816B0968826B526841EA0211F8
:101BF000826B926841EA0221826B128A41EA0251A9
:101C0000826B127D41EA0261826B92691143026824
:101C10009200A2F1C042C2F8041107E06FF07042D6
:101C200001688900A1F1C041C1F80421704700009A
:101C30000EB50121062005F0E5FE022000900020EF
:101C40008DF804008DF8060003208DF805000120B2
:101C50008DF807006946294800F04CFA4FF400500F
:101C6000009001208DF804006946254800F042FAF2
:101C7000FEF760FF00202349086014200EF01CF9D5
:101C800001202149C1F8B40232200EF015F90020DC
:101C90008DF80800012202A900F038F9012202A9FA
:101CA000A42000F033F916208DF80800012202A9C3
:101CB000802000F02BF90C208DF80800012202A9E9
:101CC000882000F023F9022202A9A12000F024F8C4
:101CD0009DF8080030280ED19DF8090003280AD18C
:101CE0009DF809009DF8082000EB022107A00BF0E9
:101CF00049FF00200EBD0120FCE700000004024067
:101D000000080240B40241420000414243545020C6
:101D100049443A25780D0A002DE9F04106460F4660
:101D20001546FEF7BBFF7020FEF786FFFFF700F8B1
:101D3000F0B2FEF781FFFEF7FBFFFEF7AFFF712069
:101D4000FEF77AFFFEF7F4FF00240BE0691EA142C4
:101D500001D0012100E000210846FEF737FF385589
:101D6000601CC4B2AC42F1DBFEF7BEFFBDE8F081FF
:101D700071B581B00024002661480078401C60499C
:101D80000870084600780A2190FBF1F201FB12006E
:101D900018B15B4800780A2867DA012201A90220FD
:101DA000FFF7BAFF9DF8040000F00F0000287ED076
:101DB0009DF8040000F00F00062878DA9DF8040072
:101DC00000F00F01FF208840C5B2E843C0B240F0E8
:101DD000C0004C4981F8200000245AE0494890F89E
:101DE00020000121A1400840F0B3474931F8140018
:101DF00004226946FFF790FF424890F8300000F057
:101E00000100C0B19DF801009DF8001001F00F0124
:101E100000EB01203B49163121F814009DF8030026
:101E20009DF8021001F00F0100EB012135480C3044
:101E300020F814101DE09DF801009DF8001001F03D
:101E40000F0100EB0120C0F5F07081B22D480C307D
:101E500020F814109DF803009DF8021001F00F0106
:101E600000EB0121274801E011E020E0163020F8C6
:101E700014109DF8000000F0F000802807D0002129
:101E80002048163020F814100A3820F81410601C6E
:101E9000C4B2052CA2DB01261A48808920B9194852
:101EA000C08A08B9002001900020154908709DF8EB
:101EB000040000F01F00D0B9124890F8200000F094
:101EC000800040B10F4890F8200020F080000D49BC
:101ED00081F820000BE04FF6FF700A498881C88224
:101EE000084690F8200000F0E00081F82000044847
:101EF0000078F02802DD0A200149087030467CBDD8
:101F000020000020240000201E5E01082DE9F04181
:101F100005460E4617464FF00008FEF7BFFE70203C
:101F2000FEF78AFEFEF704FFE8B2FEF785FEFEF735
:101F3000FFFE00240BE0305DFEF77EFEFEF7F8FEAC
:101F40008046B8F1000F00D003E0601CC4B2BC4270
:101F5000F1DB00BFFEF7C8FE4046BDE8F08100009F
:101F60002DE9FC4107460D46002600240020009084
:101F7000019008205B49086010204860402088607C
:101F80000020C8604FF480600861084606F006FB38
:101F90001020FEF715FF044614B12046BDE8FC8171
:101FA0005148008800044F490860372048604020AD
:101FB00088600020C8604FF480600861084606F021
:101FC000EDFA3720FEF7FCFE04460CB12046E5E7AB
:101FD0004FF0FF3045490860082048603020886095
:101FE0000220C8600020086101204861084606F010
:101FF0006FFA00203B490860332048604020886029
:102000000020C8604FF480600861084606F0C6FAF8
:102010003320FEF7D5FE04460CB12046BEE70CE0A7
:102020004FF4001006F06EFA38B1314800684DF8F0
:102030002600761C022E00D307E02D484C3800689D
:1020400040F22A6108400028EAD000BF082006F0CC
:1020500059FA20B1082006F02BFA04209EE702204E
:1020600006F050FA20B1022006F022FA022095E78D
:10207000202006F047FA20B1202006F019FA0620A9
:102080008CE74FF4007006F03DFA28B14FF4007071
:1020900006F00EFA072081E740F2FF5006F008FA3A
:1020A00000980006009901F47F4140EA0120009960
:1020B00001F47F0140EA1120009940EA1160686054
:1020C00001980006019901F47F4140EA012001993D
:1020D00001F47F0140EA1120019940EA1160286073
:1020E00020465BE7D80B002014000020EC0B0020FA
:1020F000802C0140F0B50A4600210023002400BFD7
:102100003DE0012505FA01F3156805EA03049C4248
:1021100034D105684F000326BE40B54305601579EC
:102120004E00B5400668354305601579012D02D093
:102130001579022D16D185684F000326BE40B543A0
:10214000856055794E00B5408668354385604568A1
:1021500001268E40B5434560456896798E40B6B2FB
:1021600035434560C5684F000326BE40B543C56092
:10217000D5794E00B540C6683543C560491C102965
:10218000BFD3F0BDF0B5002300244D07ED0E02FAD9
:1021900005F3CE1000F1200555F826504E07F70E36
:1021A0000F26BE40B543CF1000F1200646F8275059
:1021B000CE1000F1200555F8265045EA0304CE1054
:1021C00000F1200545F82640F0BD024600201369C5
:1021D0000B400BB1012000E00020704701837047E5
:1021E0001FB50121062005F00DFC02200090002003
:1021F0008DF804008DF8060003208DF805000120FD
:102200008DF8070069463448FFF774FF4FF400501B
:10221000009001208DF8040069463048FFF76AFFFE
:10222000FEF788FC00202E4908600A200DF044FECD
:1022300001202C49C1F8B4020A200DF03DFE022015
:10224000009001208DF8040000208DF807006946F9
:102250002148FFF74FFF64200DF02EFE042202A953
:1022600048F2401000F054F800208DF80C0002A94C
:102270001DA00BF087FC1FA102A8FEF742F848BB87
:1022800002208DF80800012202A948F2400000F067
:102290009FF9012202A948F2470000F039F89DF8A1
:1022A0000800602807DA9DF8081014A00BF06AFCFB
:1022B000012000F05FF90A200DF0FEFD00208DF8EE
:1022C0000800012202A948F2400000F081F9002034
:1022D00004B010BD0120FBE70004024000080240EA
:1022E000B4024142000041424354502049443A253F
:1022F000730D0A003931343700000000446566610F
:10230000756C74205665723A25640D0A0000000051
:102310002DE9F04105460F461646FEF7BFFC282082
:10232000FEF78AFCFEF704FD2812FEF785FCFEF797
:10233000FFFCE8B2FEF780FCFEF7FAFCFEF7AEFC0D
:102340002920FEF779FCFEF7F3FC00240BE0711E58
:10235000A14201D0012100E000210846FEF736FC31
:102360003855601CC4B2B442F1DBFEF7BDFCBDE8D9
:10237000F081000071B583B0002400267948007810
:10238000401C78490870084600780A2190FBF1F259
:1023900001FB120018B1734800780A287EDA012286
:1023A00003A948F24E10FFF7B3FF9DF80C0000F0B0
:1023B000800068B19DF80C0000F00F00062807DAD5
:1023C00000200190012201A948F24E1000F000F90E
:1023D0009DF80C0000F00F0000285FD09DF80C0065
:1023E00000F00F000628D9DA9DF80C0000F00F016C
:1023F000FF208840C0B201905B4890F820509DF8C3
:102400000400C043C0B240F0C000574981F820002A
:10241000084681898182C18AC183002446E05248EE
:1024200090F820000121A140084020B34F4931F825
:102430001400042202A9FFF76BFF4B4890F830000C
:1024400000F00100C0B19DF808009DF8091000EBF4
:10245000012081B24448163020F814109DF80A007B
:102460009DF80B1000EB0120C0F5487081B23E488A
:102470000C3020F8141017E09DF808009DF80910A2
:1024800000EB012081B238480C3020F814109DF880
:102490000A009DF80B1000EB012000E036E081B24D
:1024A0003148163020F81410601CC4B2052CB6DB7D
:1024B00001262D4880892E490988884205DC2A4852
:1024C000C08A2B49498888421DDD9DF80C0000F028
:1024D0000F0001280ADD2448C08923498881084665
:1024E000008BC88200201F4908700FE01E48808AB8
:1024F0001D4988810846C08BC88280200390084609
:1025000080F8205002E00020164908709DF80C0069
:1025100000F08F0080281AD1134890F8200000F0B6
:10252000800040B1104890F8200020F080000E4953
:1025300081F820000BE04FF6FF700B498881C882BC
:10254000084690F8200000F0E00081F820000548DF
:102550000078F02802DD0A2002490870304604B0F5
:1025600070BD00002100002024000020E05E010872
:10257000AC0B002038B50546002400208DF8000083
:102580008DF8015000BF09E09DF800000F49095D7A
:102590000844C0B28DF80000601CC4B2B82CF3D35C
:1025A0009DF80000C043401CC0B28DF80000B82266
:1025B000064948F2470000F00BF80222694648F24B
:1025C000FF0000F005F8002038BD0000285E01087B
:1025D0002DE9F04104460E4617464FF00008FEF77D
:1025E0005DFB2820FEF728FBFEF7A2FB2012FEF77A
:1025F00023FBFEF79DFBE0B2FEF71EFBFEF798FB08
:1026000000250BE0705DFEF717FBFEF791FB80469F
:10261000B8F1000F00D003E0681CC5B2BD42F1DB89
:1026200000BFFEF761FB4046BDE8F0812DE9F05F99
:1026300082460F4614462046E21704EB5272D2102F
:102640002146E31704EB5373DB10A4EBC3030BB178
:10265000012300E000231A44624302F0FF099AF8C4
:1026600000600AF1010082460578812E05DB402DCD
:1026700003DBFF2D01D0FF2E0DD14FF0000B06E044
:10268000002007F8010B0BF1010000F0FF0BCB4518
:10269000F6DBBDE8F09F7F2D03DAA5F14000C5B25F
:1026A00002E0A5F14100C5B2A6F18100C6B2BE208C
:1026B00010FB065000FB09F80C2C04D0102C0CD099
:1026C000182C1ED113E01048D0F8090000EB0801C7
:1026D0004A4638460BF030F913E00B48D0F81100A9
:1026E00000EB08014A4638460BF026F909E0064897
:1026F000D0F8190000EB08014A4638460BF01CF9E7
:1027000000BF00BF00BFC4E7A0CA012000BFFEE7B2
:1027100010B500200F4908600F48006820F44020E1
:102720000D4908600846006840F4802008600020D9
:102730000A49C1F8A40202200DF0DAFB0120054984
:10274000086002200DF0D4FB00200449C1F8A0026B
:1027500010BD0000A08240420004024000804042C0
:102760001CB50121022005F04DF94FF44070009096
:1027700001208DF8040000208DF8060003208DF85C
:10278000050001208DF8070069460548FFF7B2FCF7
:102790000120044908600449C1F8A4021CBD0000DE
:1027A00000040240A08240420080404210B5002058
:1027B0000F4908600F48006820F440200D49086068
:1027C0000846006840F48020086001200A49C1F8EA
:1027D000A40202200DF08CFB0120054908600220B4
:1027E0000DF086FB00200449C1F8A00210BD0000D6
:1027F000A0824042000402400080404270B505467D
:1028000000241648006820F4402014490860084657
:1028100000680860002616E00020114908600220C8
:102820000DF066FB01200F49C1F8A0026006040EFE
:102830000B487C38006808B1601CC4B201200DF060
:1028400057FB701CC6B2082EE6DB15B9FFF7AEFFCA
:1028500001E0FFF75DFF204670BD0000000402406C
:10286000A08240420080404270B50446154800688E
:1028700020F44020134908600846006840F4802096
:102880000860002010490860002517E0E0090E49A3
:10289000091D08606006040E02200DF029FB0120CE
:1028A0000A49C1F8A00202200DF022FB00200649CF
:1028B000086002200DF01CFB681CC5B2082DE5DB8A
:1028C00070BD000000040240A082404200804042EF
:1028D00010B50F48006820F440200D4908600846F4
:1028E000006840F48020086001200A4908600A4915
:1028F000C1F8A00204200DF0FBFA00200549086091
:1029000004200DF0F5FA00200349C1F8A00210BD23
:1029100000040240A48240420080404210B50F48AB
:10292000006820F440200D4908600846006840F423
:102930008020086000200A4908600A49C1F8A40202
:1029400004200DF0D5FA0120054908600549C1F8B9
:10295000A40204200DF0CCFA10BD000000040240D7
:10296000A08240420080404210B500241348006815
:1029700020F44020114908600846006808600120E2
:102980000F4908600DF0B4FA01200E49C1F8A00209
:102990000DF0AEFA07E0601CC4B2FA2C03DDFFF7BD
:1029A000BDFF012010BD0648803800680028F2D124
:1029B0000349091F086000BFF4E70000000402405B
:1029C000A4824042008040421CB504460020019091
:1029D0000090224800880004214908600D204860CA
:1029E000402088600020C8604FF48060086108467D
:1029F00005F0D4FD1B480068009002E0194800680B
:102A00000090009800F045000028F7D0012005F064
:102A100079FD20B1012005F04BFD01201CBD0420F3
:102A200005F070FD20B1042005F042FD0320F5E71C
:102A30000C48243800680D2801D01020EEE740F241
:102A4000FF5005F035FD07482038006801900198D7
:102A5000C0F3432020700020E0E7000014000020B5
:102A6000D80B0020342C01401CB50121112004F0AA
:102A7000C9FF1C20009000208DF8040003208DF871
:102A8000050001208DF8070069460648FFF732FB74
:102A90000120009002208DF8070069460248FFF7E8
:102AA00029FB1CBD001002400000024010B5044686
:102AB00014B101202C4908702B480078002837D029
:102AC00010212A48FFF781FB78B108212748FFF73A
:102AD0007CFB50B104212548FFF777FB28B1012189
:102AE0002348FFF772FB012822D10A200DF0E4F9F8
:102AF00000201D49087010211C48FFF766FB08B92B
:102B0000012010BD08211948FFF75FFB08B902201A
:102B1000F7E704211548FFF758FB08B90320F0E751
:102B200001211348FFF751FB01281BD10420E8E7DE
:102B300010210E48FFF749FB012813D108210B484B
:102B4000FFF743FB01280DD104210848FFF73DFBA7
:102B5000012807D101210648FFF737FB10B90120F2
:102B6000014908700020CCE70A0000200010024054
:102B70000000024070B504460026174805884088CA
:102B800045431548808846F60401884216D112480C
:102B90008079012812D100200F4988712A204881AC
:102BA0002B2088810021084604F06AF901200A4997
:102BB00088712B2048812A20888103E00021084663
:102BC00004F05EF904F05AFB002602E0034804809A
:102BD000761CAE42FAD370BDAC0B00208000006CB6
:102BE00010B50446002C66D16C498871F02008802D
:102BF0004FF4A07048800846808849F241318842ED
:102C00000BD06648808846F60401884205D06348A8
:102C1000808845F2103188421AD12C205F49088102
:102C20002A2048812B2088810846808846F60401A6
:102C3000884205D05948808845F21031884206D133
:102C40004FF4A070554908804FF4F0704880A1E01F
:102C50005248808845F21051884210D14FF43050CC
:102C60004E4908814FF4285048814FF42C508881F8
:102C70004FF4F07008804FF4487048808AE047486D
:102C8000808841F6631188420DD12C204349088188
:102C90002B2048812A2088814FF4F07008804FF45F
:102CA0004870488076E022203C49088120204881F5
:102CB000212088816EE00120384988714FF4A0708E
:102CC0000880F02048800846808849F241318842D7
:102CD00005D03248808845F21031884207D12C2037
:102CE0002E4908812A2048812B2088813FE02B48EB
:102CF000808846F60401884207D12C2027490881A4
:102D00002B2048812A20888131E02448808845F2A0
:102D10001051884210D14FF43050204908814FF4AF
:102D2000285048814FF42C5088814FF44870088017
:102D30004FF4F07048801AE01848808841F663111B
:102D400088420DD12C20154908812A2048812B204A
:102D500088814FF4487008804FF4F070488006E096
:102D600022200E49088121204881202088810B489B
:102D7000808846F60401884205D00848808845F2DC
:102D80001031884206D14FF4F070044908804FF4A6
:102D9000A0704880002003F0FDFE10BDAC0B0020A9
:102DA0002DE9FF4F84B081468A46002003900290AF
:102DB0000698A0EB09050798A0EB0A06CDF8049049
:102DC000CDF800A0002D01DD012705E00DB9002799
:102DD00002E04FF0FF376D42002E02DD4FF0010898
:102DE00006E016B94FF0000802E04FF0FF387642D7
:102DF000B54201DD2C4600E034464FF0000B21E0E7
:102E0000009A91B2019A90B200F022F803982844F7
:102E100003900298304402900398A04205DD039885
:102E2000001B03900198384401900298A04205DDF0
:102E30000298001B02900098404400900BF10100A2
:102E40001FFA80FB601C8345DADD08B0BDE8F08F17
:102E500030B504460D462946204604F011F804F02A
:102E60000DFA024800880249088030BD0C0000209D
:102E70008000006CF0B504460D4616461F462B46F2
:102E8000324629462046FFF78BFF3B46224629461D
:102E90002046FFF785FF3B46324639462046FFF77E
:102EA0007FFF3B46324629463046FFF779FFF0BDAB
:102EB0002DE9F04306460F46904600244546032080
:102EC000A0EB48093CE07A1B91B2321990B2FFF7AF
:102ED000BFFF3A1B91B2721990B2FFF7B9FF3A19CE
:102EE00091B2721990B2FFF7B3FF7A1991B2321909
:102EF00090B2FFF7ADFF7A1991B2321B90B2FFF793
:102F0000A7FF3A1991B2721B90B2FFF7A1FF7A1B8B
:102F100091B2321B90B2FFF79BFF3A1B91B2721B2A
:102F200090B2FFF795FF641CB9F1000F03DAA0001F
:102F3000801D814404E0601B80000A3081446D1EC6
:102F4000AC42C0DDBDE8F08370B504460D461646C0
:102F50005B48808849F24131884205D058488088D2
:102F600045F21031884214D15549488904F07AF964
:102F7000201204F06BF9E0B204F068F95049888936
:102F800004F070F9281204F061F9E8B204F05EF977
:102F90008CE04B48808845F21051884220D1484946
:102FA000488904F05FF9201204F050F94449498936
:102FB000491C88B204F056F9E0B204F047F94049E0
:102FC000888904F04FF9281204F040F93C498989B6
:102FD000491C88B204F046F9E8B204F037F965E01C
:102FE0003748808841F66311884228D13448807977
:102FF00020B933480088401E001B84B230494889FC
:1030000004F030F9201204F021F9E0B204F01EF9C6
:10301000201204F01BF9E0B204F018F9284988895D
:1030200004F020F9281204F011F9E8B204F00EF9C6
:10303000281204F00BF9E8B204F008F936E0204851
:10304000808846F6040188421DD11D4880790128F8
:1030500004D11B480088401E001B84B218494889CF
:1030600004F000F9201204F0F1F8E0B204F0EEF8F8
:103070001349888904F0F6F8281204F0E7F8E8B25A
:1030800004F0E4F812E00E488079012804D10C48DD
:103090000088401E001B84B209494889214604F07B
:1030A000F7F807498889294604F0F2F804480089AE
:1030B000044908804FF0D840A0F8806070BD00003F
:1030C000AC0B00207E00006C2DE9FC4F05460E463F
:1030D00017469846DDF82C900020019027488088FC
:1030E00046F60401884229D124488079012825D157
:1030F000AB46354621480088C01B401E86B2474675
:103100001E480088A0EB0B00401E1FFA80F800202C
:103110001A4988712A2048812B20888143463A46E3
:1031200031462846CDF80090FFF7CEFF0120134925
:1031300088712B2048812A2088811DE0781B401C43
:1031400080B20190344615E02146284603F098FEEF
:1031500004F094F84FF0000A07E04FF0D840A0F8D0
:1031600080900AF101001FFA80FA01988245F4DB91
:10317000601C84B24445E7DDBDE8FC8FAC0B002049
:1031800000B5A1B00020209001217A2004F03AFC83
:103190000121084604F056FC4FF400401E90012027
:1031A0008DF87C0000208DF87E0002208DF87D00D7
:1031B00001208DF87F001EA9FE48FEF79BFF4CF210
:1031C00033701E9002208DF87C0000208DF87E0068
:1031D00003208DF87D0001208DF87F001EA9F648A0
:1031E000FEF788FF4FF680701E9002208DF87C005D
:1031F00000208DF87E0003208DF87D0001208DF8E1
:103200007F001EA9ED48FEF775FF4FF480501E9019
:1032100002208DF87C0000208DF87E0003208DF8C0
:103220007D0001208DF87F001EA9E548FEF762FFB2
:103230004FF480501E9002208DF87C0000208DF805
:103240007E0003208DF87D0001208DF87F001EA9EF
:10325000DC48FEF74FFF0C220021D748FEF792FF13
:103260000C220121D448FEF78DFF0C220421D24804
:10327000FEF788FF0C220521CF48FEF783FF0C22C2
:103280000821CD48FEF77EFF0C220921CA48FEF72F
:1032900079FF0C220A21C848FEF774FF0C220E2188
:1032A000C548FEF76FFF0C220F21C348FEF76AFFE7
:1032B0000C220721C148FEF765FF0C220821BF48F8
:1032C000FEF760FF0C220921BC48FEF75BFF0C22D1
:1032D0000A21BA48FEF756FF0C220B21B748FEF729
:1032E00051FF0C221146B548FEF74CFF0C220D2170
:1032F000B248FEF747FF0C220E21B048FEF742FF0E
:103300000C220F21AD48FEF73DFF0C221146AC48C0
:10331000FEF738FF0C221146AA48FEF733FF0F20B4
:103320000890002009903C200A9000200B900C90FF
:103330000D900E900920019000200290082003902B
:103340000020049005900690079006200F90002022
:10335000109011901020129000201390159014904E
:10336000169017904FF480501890002019904FF449
:1033700080401A9000201B9008A81C9001A81D9066
:103380000FA8FEF7E1FB01210620FEF7C3FB322068
:103390000CF092FD0121002003F07AFF32200CF0A6
:1033A0008BFD002003F0BAFB87498880084680889F
:1033B000FF280ADB084680884FF6FF71884204D058
:1033C00081488088B0F5134F7ED1D32003F04AFFA7
:1033D00003F09AFB7C49888003F096FB7A49888049
:1033E00003F092FB78498880084680884FF6FF7189
:1033F00001EA00207449888003F086FB72498988BD
:103400000843714988800846808849F241318842E2
:103410005AD0BF2003F026FF03F076FB6A4988806C
:1034200003F072FB6849888003F06EFB6649888070
:1034300003F06AFB64498880084680884FF6FF7174
:1034400001EA00206049888003F05EFB5E498988BC
:1034500008435D4988800846808846F60401884212
:103460007AD0D42003F0FEFE03F04EFB564988804C
:1034700003F04AFB5449888003F046FB5249888098
:10348000084680884FF6FF7101EA00204E49888087
:1034900003F03AFB4C49898808434B498880084629
:1034A000808845F21031884256D04FF45A4003F0DC
:1034B000D9FE03F029FB444988804FF45B4003F0B8
:1034C000D1FE03F021FB00E046E03F49888008463A
:1034D00080884FF6FF7101EA00203B4988804FF455
:1034E0005C4003F0BFFE03F00FFB374989880843B7
:1034F0003549888008468088B0F5004F02D145F2F2
:10350000105088803048808845F21051884223D07E
:10351000A12003F0A7FE03F0F7FA2B49888003F0FF
:10352000F3FA29498880084680884FF6FF7101EA3E
:1035300000202549888003F0E7FA23498988084359
:10354000214988800846808845F26171884203D10C
:1035500041F663101C4988801B48808849F241313C
:10356000884211D01848808845F2103188420BD02B
:103570001548808845F21051884205D0124880884D
:1035800041F6631188422DD11048006820F00F00E9
:103590004FF02041C1F81C010846D0F81C0120F46E
:1035A0007060C1F81C010846D0F81C0140F003000F
:1035B0000EE0000000040240000C02400010024037
:1035C0000014024000180240AC0B00201C0100A0B7
:1035D000C1F81C010846D0F81C0140F40070C1F885
:1035E0001C0128E0FE48808846F60401884205D088
:1035F000FB4880884CF2055188421CD1F94800688C
:1036000020F00F004FF02041C1F81C010846D0F80F
:103610001C0120F47060C1F81C010846D0F81C01A0
:1036200040F00A00C1F81C010846D0F81C0140F423
:103630004060C1F81C01EA488188EBA00AF0A2FAB8
:10364000E748808849F2413188427CD1CF2003F09D
:1036500009FE002003F0FAFDC12003F0F7FD302041
:1036600003F0F4FDED2003F0FDFD642003F0EEFD1A
:10367000032003F0EBFD122003F0E8FD812003F0AE
:10368000E5FDE82003F0EEFD852003F0DFFD1020CE
:1036900003F0DCFD7A2003F0D9FDCB2003F0E2FD3E
:1036A000392003F0D3FD2C2003F0D0FD002003F0DF
:1036B000CDFD342003F0CAFD022003F0C7FDF72042
:1036C00003F0D0FD202003F0C1FDEA2003F0CAFD85
:1036D000002003F0BBFD002003F0B8FDC02003F084
:1036E000C1FD1B2003F0B2FDC12003F0BBFD012092
:1036F00003F0ACFDC52003F0B5FD302003F0A6FDBE
:10370000302003F0A3FDC72003F0ACFDB72003F089
:103710009DFD362003F0A6FD482003F097FD3A20DA
:1037200003F0A0FD552003F091FDB12003F09AFDB8
:10373000002003F08BFD1A2003F088FDB62003F073
:1037400091FD0A2000E099E003F080FDA22003F043
:103750007DFDF22003F086FD002003F077FD26209A
:1037600003F080FD012003F071FDE02003F07AFDFD
:103770000F2003F06BFD2A2003F068FD282003F0E2
:1037800065FD082003F062FD0E2003F05FFD0820B8
:1037900003F05CFD542003F059FDA92003F056FD11
:1037A000432003F053FD0A2003F050FD0F2003F0E7
:1037B0004DFD002003F04AFD002003F047FD0020EE
:1037C00003F044FD002003F041FDE12003F04AFD39
:1037D000002003F03BFD152003F038FD172003F017
:1037E00035FD072003F032FD112003F02FFD0620E8
:1037F00003F02CFD2B2003F029FD562003F026FDBD
:103800003C2003F023FD052003F020FD102003F0F1
:103810001DFD0F2003F01AFD3F2003F017FD3F2090
:1038200003F014FD0F2003F011FD2B2003F01AFD0F
:10383000002003F00BFD002003F008FD012003F041
:1038400005FD3F2003F002FD2A2003F00BFD0020C0
:1038500003F0FCFC002003F0F9FC002003F0F6FC70
:10386000EF2003F0F3FC112003F0FCFC78200CF0B7
:1038700023FB292003F0F6FC03F02AB9584880887E
:1038800046F6040188427CD1112003F0EBFC1420A1
:103890000CF012FBD02003F0E5FC072003F0D6FC6F
:1038A000422003F0D3FC1D2003F0D0FCD12003F014
:1038B000D9FC002003F0CAFC1A2003F0C7FC092041
:1038C00003F0C4FCD22003F0CDFC012003F0BEFCC9
:1038D000222003F0BBFCC02003F0C4FC102003F046
:1038E000B5FC3B2003F0B2FC002003F0AFFC02204B
:1038F00003F0ACFC112003F0A9FCC52003F0B2FCDE
:10390000032003F0A3FCC82003F0ACFC002003F06C
:103910009DFC252003F09AFC212003F097FC052054
:1039200003F094FC002003F091FC0A2003F08EFCCD
:10393000652003F08BFC252003F088FC772003F042
:1039400085FC502003F082FC0F2003F07FFC002058
:1039500003F07CFCF82003F085FC012003F076FCEA
:10396000FE2003F07FFC002003F070FC022003F037
:103970006DFC202003F076FC362003F073FC082059
:1039800000E039E003F062FC3A2003F06BFC5520C4
:1039900003F05CFC2B2003F065FC002003F056FCD8
:1039A000002003F053FC012003F050FC3F2003F003
:1039B0004DFC2A2003F056FC002003F047FC0020B9
:1039C00003F044FC012003F041FCDF2003F03EFC47
:1039D00078200CF071FA292003F044FC4CE7000039
:1039E000AC0B00201C0100A0204C43442049443A69
:1039F00025780D0A00000000FE48808845F210314D
:103A0000884240F07C87ED2003F02CFC012003F07D
:103A10001DFCFE2003F01AFCEE2003F023FCDE2048
:103A200003F014FC212003F011FCF12003F01AFC38
:103A3000012003F00BFCDF2003F014FC102003F046
:103A400005FCC42003F00EFC8F2003F0FFFBC62012
:103A500003F008FC002003F0F9FBE22003F0F6FB82
:103A6000E22003F0F3FBE22003F0F0FBBF2003F0C1
:103A7000F9FBAA2003F0EAFBB02003F0F3FB0D20D2
:103A800003F0E4FB002003F0E1FB0D2003F0DEFB7C
:103A9000002003F0DBFB112003F0D8FB002003F033
:103AA000D5FB192003F0D2FB002003F0CFFB21202F
:103AB00003F0CCFB002003F0C9FB2D2003F0C6FB74
:103AC000002003F0C3FB3D2003F0C0FB002003F007
:103AD000BDFB5D2003F0BAFB002003F0B7FB5D20C7
:103AE00003F0B4FB002003F0B1FBB12003F0BAFBFC
:103AF000802003F0ABFB002003F0A8FB8B2003F039
:103B0000A5FB002003F0A2FB962003F09FFB002002
:103B100003F09CFBB22003F0A5FB002003F096FB12
:103B2000002003F093FB022003F090FB002003F041
:103B30008DFB032003F08AFB002003F087FBB320FA
:103B400003F090FB002003F081FB002003F07EFBDC
:103B5000002003F07BFB002003F078FB002003F043
:103B600075FB002003F072FB002003F06FFB0020C8
:103B700003F06CFB002003F069FB002003F066FB00
:103B8000002003F063FB002003F060FB002003F043
:103B90005DFB002003F05AFB002003F057FB0020E0
:103BA00003F054FB002003F051FB002003F04EFB18
:103BB000002003F04BFB002003F048FB002003F043
:103BC00045FB002003F042FB002003F03FFB0020F8
:103BD00003F03CFBB42003F045FB8B2003F036FBE5
:103BE000002003F033FB962003F030FB002003F0AD
:103BF0002DFBA12003F02AFB002003F027FBB520BA
:103C000003F030FB022003F021FB002003F01EFB39
:103C1000032003F01BFB002003F018FB042003F03B
:103C200015FB002003F012FBB62003F01BFB002065
:103C300003F00CFB002003F009FBB72003F012FB9C
:103C4000002003F003FB002003F000FB3F2003F003
:103C5000FDFA002003F0FAFA5E2003F0F7FA0020E4
:103C600003F0F4FA642003F0F1FA002003F0EEFA16
:103C70008C2003F0EBFA002003F0E8FAAC2003F00C
:103C8000E5FA002003F0E2FADC2003F0DFFA00207E
:103C900003F0DCFA702003F0D9FA002003F0D6FA22
:103CA000902003F0D3FA002003F0D0FAEB2003F0C9
:103CB000CDFA002003F0CAFADC2003F0C7FA002096
:103CC00003F0C4FAB82003F0CDFA002003F0BEFAE6
:103CD000002003F0BBFA002003F0B8FA002003F044
:103CE000B5FA002003F0B2FA002003F0AFFA00208A
:103CF00003F0ACFA002003F0A9FABA2003F0B2FAFC
:103D0000242003F0A3FA002003F0A0FA002003F01F
:103D10009DFA002003F09AFAC12003F0A3FA2020B4
:103D200003F094FA002003F091FA542003F08EFA85
:103D3000002003F08BFAFF2003F088FA002003F044
:103D400085FAC22003F08EFA0A2003F07FFA0020E1
:103D500003F07CFA042003F079FA002003F076FAED
:103D6000C32003F07FFA3C2003F070FA002003F038
:103D70006DFA3A2003F06AFA002003F067FA39205E
:103D800003F064FA002003F061FA372003F05EFAD2
:103D9000002003F05BFA3C2003F058FA002003F007
:103DA00055FA362003F052FA002003F04FFA322081
:103DB00003F04CFA002003F049FA2F2003F046FAF2
:103DC000002003F043FA2C2003F040FA002003F017
:103DD0003DFA292003F03AFA002003F037FA2620B2
:103DE00003F034FA002003F031FA242003F02EFA15
:103DF000002001E0AC0B002003F028FA242003F09F
:103E000025FA002003F022FA232003F01FFA0020F5
:103E100003F01CFA3C2003F019FA002003F016FA14
:103E2000362003F013FA002003F010FA322003F0DA
:103E30000DFA002003F00AFA2F2003F007FA002001
:103E400003F004FA2C2003F001FA002003F0FEF93D
:103E5000292003F0FBF9002003F0F8F9262003F0F5
:103E6000F5F9002003F0F2F9242003F0EFF9002027
:103E700003F0ECF9242003F0E9F9002003F0E6F95F
:103E8000232003F0E3F9002003F0E0F9C42003F05D
:103E9000E9F9622003F0DAF9002003F0D7F90520F0
:103EA00003F0D4F9002003F0D1F9842003F0CEF917
:103EB000002003F0CBF9F02003F0C8F9002003F054
:103EC000C5F9182003F0C2F9002003F0BFF9A420BF
:103ED00003F0BCF9002003F0B9F9182003F0B6F99B
:103EE000002003F0B3F9502003F0B0F9002003F0F4
:103EF000ADF90C2003F0AAF9002003F0A7F9172070
:103F000003F0A4F9002003F0A1F9952003F09EF935
:103F1000002003F09BF9F32003F098F9002003F050
:103F200095F9E62003F092F9002003F08FF9C520FF
:103F300003F098F9322003F089F9002003F086F9A4
:103F4000442003F083F9002003F080F9652003F09A
:103F50007DF9002003F07AF9762003F077F900204C
:103F600003F074F9882003F071F9002003F06EF972
:103F7000C62003F077F9202003F068F9002003F051
:103F800065F9172003F062F9002003F05FF90120C2
:103F900003F05CF9002003F059F9C72003F062F93F
:103FA000002003F053F9002003F050F9002003F043
:103FB0004DF9002003F04AF9C82003F053F900201E
:103FC00003F044F9002003F041F9002003F03EF92A
:103FD000002003F03BF9C92003F044F9002003F06E
:103FE00035F9002003F032F9002003F02FF900200A
:103FF00003F02CF9002003F029F9002003F026F942
:10400000002003F023F9002003F020F9002003F042
:104010001DF9002003F01AF9002003F017F9002021
:1040200003F014F9002003F011F9002003F00EF959
:10403000002003F00BF9002003F008F9E02003F062
:1040400011F9162003F002F9002003F0FFF81C20FC
:1040500003F0FCF8002003F0F9F8212003F0F6F853
:10406000002003F0F3F8362003F0F0F8002003F00E
:10407000EDF8462003F0EAF8002003F0E7F85220BC
:1040800003F0E4F8002003F0E1F8642003F0DEF828
:10409000002003F0DBF87A2003F0D8F8002003F0CA
:1040A000D5F88B2003F0D2F8002003F0CFF8992048
:1040B00003F0CCF8002003F0C9F8A82003F0C6F8FC
:1040C000002003F0C3F8B92003F0C0F8002003F08B
:1040D000BDF8C42003F0BAF8002003F0B7F8CA20F6
:1040E00003F0B4F8002003F0B1F8D22003F0AEF8EA
:1040F000002003F0ABF8D92003F0A8F8002003F06B
:10410000A5F8E02003F0A2F8002003F09FF8F320C8
:1041100003F09CF8002003F099F8E12003F0A2F8E6
:10412000162003F093F8002003F090F81C2003F011
:104130008DF8002003F08AF8222003F087F8002091
:1041400003F084F8362003F081F8002003F07EF8B5
:10415000452003F07BF8002003F078F8522003F0AC
:1041600075F8002003F072F8642003F06FF8002067
:1041700003F06CF87A2003F069F8002003F066F889
:104180008B2003F063F8002003F060F8992003F01F
:104190005DF8002003F05AF8A82003F057F800203B
:1041A00003F054F8B92003F051F8002003F04EF862
:1041B000C42003F04BF8002003F048F8CA2003F0B5
:1041C00045F8002003F042F8D22003F03FF8002029
:1041D00003F03CF8D82003F039F8002003F036F85B
:1041E000E02003F033F8002003F030F8F32003F070
:1041F0002DF8002003F02AF8E22003F033F8052020
:1042000003F024F8002003F021F80B2003F01EF83F
:10421000002003F01BF81B2003F018F8002003F027
:1042200015F8342003F012F8002003F00FF84420B2
:1042300003F00CF8002003F009F84F2003F006F813
:10424000002003F003F8612003F000F8002002F0E2
:10425000FDFF792002F0FAFF002002F0F7FF88202E
:1042600002F0F4FF002002F0F1FF972002F0EEFFD1
:10427000002002F0EBFFA62002F0E8FF002002F091
:10428000E5FFB72002F0E2FF002002F0DFFFC220CE
:1042900002F0DCFF002002F0D9FFC72002F0D6FFB9
:1042A000002002F0D3FFD12002F0D0FF002002F066
:1042B000CDFFD62002F0CAFF002002F0C7FFDD20AC
:1042C00002F0C4FF002002F0C1FFF32002F0BEFFA5
:1042D000002002F0BBFFE32002F0C4FF052002F043
:1042E000B5FF002002F0B2FF0A2002F0AFFF00206D
:1042F00002F0ACFF1C2002F0A9FF002002F0A6FF94
:10430000332002F0A3FF002002F0A0FF442002F0BF
:104310009DFF002002F09AFF502002F097FF00203E
:1043200002F094FF622002F091FF002002F08EFF65
:10433000782002F08BFF002002F088FF882002F036
:1043400085FF002002F082FF972002F07FFF00200F
:1043500002F07CFFA62002F079FF002002F076FF39
:10436000B72002F073FF002002F070FFC22002F0BD
:104370006DFF002002F06AFFC72002F067FF0020F7
:1043800002F064FFD12002F061FF002002F05EFF26
:10439000D52002F05BFF002002F058FFDD2002F084
:1043A00055FF002002F052FFF32002F04FFF0020E3
:1043B00002F04CFFE42002F055FF012002F046FF1E
:1043C000002002F043FF012002F040FF002002F035
:1043D0003DFF022002F03AFF002002F037FF2A20C2
:1043E00002F034FF002002F031FF3C2002F02EFFEB
:1043F000002002F02BFF4B2002F028FF002002F0EB
:1044000025FF5D2002F022FF002002F01FFF742034
:1044100002F01CFF002002F019FF842002F016FFBA
:10442000002002F013FF932002F010FF002002F0A2
:104430000DFFA22002F00AFF002002F007FFB320C8
:1044400002F004FF002002F001FFBE2002F0FEFE99
:10445000002002F0FBFEC42002F0F8FE002002F073
:10446000F5FECD2002F0F2FE002002F0EFFED32098
:1044700002F0ECFE002002F0E9FEDD2002F0E6FE94
:10448000002002F0E3FEF32002F0E0FE002002F044
:10449000DDFEE52002F0E6FE002002F0D7FE00205F
:1044A00002F0D4FE002002F0D1FE002002F0CEFE89
:1044B000022002F0CBFE002002F0C8FE292002F00C
:1044C000C5FE002002F0C2FE3C2002F0BFFE00202C
:1044D00002F0BCFE4B2002F0B9FE002002F0B6FE56
:1044E0005D2002F0B3FE002002F0B0FE742002F066
:1044F000ADFE002002F0AAFE842002F0A7FE0020FC
:1045000002F0A4FE932002F0A1FE002002F09EFE25
:10451000A22002F09BFE002002F098FEB32002F0E1
:1045200095FE002002F092FEBE2002F08FFE0020D9
:1045300002F08CFEC42002F089FE002002F086FE0C
:10454000CD2002F083FE002002F080FED32002F096
:104550007DFE002002F07AFEDC2002F077FE0020D3
:1045600002F074FEF32002F071FE002002F06EFEF5
:10457000E62002F077FE112002F068FE002002F033
:1045800065FE342002F062FE002002F05FFE56203D
:1045900002F05CFE002002F059FE762002F056FE8A
:1045A000002002F053FE772002F050FE002002F0BF
:1045B0004DFE662002F04AFE002002F047FE8820F1
:1045C00002F044FE002002F041FE992002F03EFE7F
:1045D000002002F03BFEBB2002F038FE002002F07B
:1045E00035FE992002F032FE002002F02FFE6620F8
:1045F00002F02CFE002002F029FE552002F026FEDB
:10460000002002F023FE552002F020FE002002F0E0
:104610001DFE452002F01AFE002002F017FE432086
:1046200002F014FE002002F011FE442002F00EFE03
:10463000002002F00BFEE72002F014FE322002F010
:1046400005FE002002F002FE552002F0FFFD0020D2
:1046500002F0FCFD762002F0F9FD002002F0F6FDEC
:10466000662002F0F3FD002002F0F0FD672002F06A
:10467000EDFD002002F0EAFD672002F0E7FD0020DA
:1046800002F0E4FD872002F0E1FD002002F0DEFDF3
:10469000992002F0DBFD002002F0D8FDBB2002F0E3
:1046A000D5FD002002F0D2FD992002F0CFFD0020C0
:1046B00002F0CCFD772002F0C9FD002002F0C6FD1B
:1046C000442002F0C3FD002002F0C0FD562002F09D
:1046D000BDFD002002F0BAFD232002F0B7FD00204E
:1046E00002F0B4FD332002F0B1FD002002F0AEFD77
:1046F000452002F0ABFD002002F0A8FDE82002F00A
:10470000B1FD002002F0A2FD002002F09FFD9920E3
:1047100002F09CFD002002F099FD872002F096FD3A
:10472000002002F093FD882002F090FD002002F0AE
:104730008DFD772002F08AFD002002F087FD6620C3
:1047400002F084FD002002F081FD882002F07EFD51
:10475000002002F07BFDAA2002F078FD002002F08C
:1047600075FDBB2002F072FD002002F06FFD992064
:1047700002F06CFD002002F069FD662002F066FD8B
:10478000002002F063FD552002F060FD002002F0E1
:104790005DFD552002F05AFD002002F057FD442037
:1047A00002F054FD002002F051FD442002F04EFDC5
:1047B000002002F04BFD552002F048FD002002F0E1
:1047C00045FDE92002F04EFDAA2002F03FFD002049
:1047D00002F03CFD002002F039FD002002F036FD21
:1047E000002002F03FFDAA2002F030FDCF2002F0B1
:1047F00039FD002002F02AFD002002F027FD0020F4
:1048000002F024FD002002F021FD002002F01EFD38
:10481000002002F01BFD002002F018FD002002F035
:1048200015FD002002F012FD002002F00FFD002017
:1048300002F00CFD002002F009FD002002F006FD50
:10484000002002F003FD002002F000FD002002F035
:10485000FDFC002002F0FAFCF02002F003FD002035
:1048600002F0F4FC502002F0F1FC002002F0EEFC1B
:10487000002002F0EBFC002002F0E8FCF32002F044
:10488000F1FC002002F0E2FCF92002F0EBFC062033
:1048900002F0DCFC102002F0D9FC292002F0D6FC4A
:1048A000002002F0D3FC3A2002F0DCFC552002F09C
:1048B000CDFC112002F0D6FC64200BF0FDFA29207B
:1048C00002F0D0FC352002F0CDFC002002F0BEFC4E
:1048D000512002F0C7FCFF2002F0B8FC532002F088
:1048E000C1FC2C2002F0B2FC552002F0BBFC82205F
:1048F00002F0ACFC2C2002F0B5FC02F0E9B8FE4856
:10490000808845F2105188427ED155214FF4704085
:1049100002F0BEFCAA214FF2010002F0B9FC5221C4
:104920004FF2020002F0B4FC08214FF2030002F043
:10493000AFFC01214FF2040002F0AAFC0D214FF45C
:10494000304002F0A5FC0D214BF2010002F0A0FC6A
:104950000D214BF2020002F09BFC34214FF4364053
:1049600002F096FC34214BF2016002F091FC3421FC
:104970004BF2026002F08CFC0D214FF4314002F04A
:1049800087FC0D214BF2011002F082FC0D214BF24D
:10499000021002F07DFC34214FF4374002F078FC25
:1049A00034214BF2017002F073FC34214BF202709F
:1049B00002F06EFC00214FF4324002F069FC00214D
:1049C0004BF2012002F064FC00214BF2022002F0C5
:1049D0005FFC24214FF4384002F05AFC24214BF6AE
:1049E000010002F055FC24214BF6020002F050FCBD
:1049F00001214FF43F4002F04BFC0F214FF43340B4
:104A000002F046FC0F2100E0FEE34BF2013002F021
:104A10003FFC0F214BF2023002F03AFC34214FF4FC
:104A2000394002F035FC34214BF6011002F030FC25
:104A300034214BF6021002F02BFC08214FF43540D4
:104A400002F026FC08214BF2015002F021FC082163
:104A50004BF2025002F01CFC03214FF4424002F0E2
:104A600017FC24214FF43A4002F012FC24214BF6AB
:104A7000012002F00DFC24214BF6022002F008FC7C
:104A800000214FF43C4002F003FC78214BF601403A
:104A900002F0FEFB00214BF6024002F0F9FB002180
:104AA0004FF43D4002F0F4FB78214BF6015002F048
:104AB000EFFB00214BF6025002F0EAFB00214FF41D
:104AC0003E4002F0E5FB64214BF6016002F0E0FBA2
:104AD00000214FF4514002F0DBFB33214DF2011075
:104AE00002F0D6FB00214DF2021002F0D1FB34217E
:104AF0004DF2031002F0CCFB00214DF2041002F045
:104B0000C7FB3A214DF2051002F0C2FB00214DF225
:104B1000061002F0BDFB4A214DF2071002F0B8FB6F
:104B200000214DF2081002F0B3FB5C214DF2091098
:104B300002F0AEFB00214DF20A1002F0A9FB812128
:104B40004DF20B1002F0A4FB00214DF20C1002F00C
:104B50009FFBA6214DF20D1002F09AFB00214DF2B1
:104B60000E1002F095FBE5214DF20F1002F090FBC4
:104B700001214DF2101002F08BFB13214DF21110A8
:104B800002F086FB01214DF2121002F081FB54214C
:104B90004DF2131002F07CFB01214DF2141002F0D3
:104BA00077FB82214DF2151002F072FB01214DF2CC
:104BB000161002F06DFBCA214DF2171002F068FBCF
:104BC00002214DF2181002F063FB00214DF2191082
:104BD00002F05EFB02214DF21A1002F059FB012196
:104BE0004DF21B1002F054FB02214DF21C1002F09A
:104BF0004FFB34214DF21D1002F04AFB02214DF211
:104C00001E1002F045FB67214DF21F1002F040FB21
:104C100002214DF2201002F03BFB84214DF22110C5
:104C200002F036FB02214DF2221002F031FBA421EA
:104C30004DF2231002F02CFB02214DF2241002F061
:104C400027FBB7214DF2251002F022FB02214DF285
:104C5000261002F01DFBCF214DF2271002F018FBA9
:104C600002214DF2281002F013FBDE214DF2291033
:104C700002F00EFB02214DF22A1002F009FBF22194
:104C80004DF22B1002F004FB02214DF22C1002F029
:104C9000FFFAFE214DF22D1002F0FAFA03214DF237
:104CA0002E1002F0F5FA10214DF22F1002F0F0FA5A
:104CB00003214DF2301002F0EBFA33214DF23110A6
:104CC00002F0E6FA03214DF2321002F0E1FA6D2112
:104CD0004DF2331002F0DCFA00214FF4524002F0A2
:104CE000D7FA33214DF2012002F0D2FA00214DF221
:104CF000022002F0CDFA01E0AC0B002034214DF28D
:104D0000032002F0C5FA00214DF2042002F0C0FA9F
:104D10003A214DF2052002F0BBFA00214DF20620A7
:104D200002F0B6FA4A214DF2072002F0B1FA002152
:104D30004DF2082002F0ACFA5C214DF2092002F09D
:104D4000A7FA00214DF20A2002F0A2FA81214DF2C9
:104D50000B2002F09DFA00214DF20C2002F098FA8F
:104D6000A6214DF20D2002F093FA00214DF20E2003
:104D700002F08EFAE5214DF20F2002F089FA0121AE
:104D80004DF2102002F084FA13214DF2112002F0AE
:104D90007FFA01214DF2122002F07AFA54214DF2ED
:104DA000132002F075FA01214DF2142002F070FA7E
:104DB00082214DF2152002F06BFA01214DF21620EE
:104DC00002F066FACA214DF2172002F061FA0221C0
:104DD0004DF2182002F05CFA00214DF2192002F089
:104DE00057FA02214DF21A2002F052FA01214DF237
:104DF0001B2002F04DFA02214DF21C2002F048FA6D
:104E000034214DF21D2002F043FA02214DF21E2002
:104E100002F03EFA67214DF21F2002F039FA02211A
:104E20004DF2202002F034FA84214DF2212002F0CC
:104E30002FFA02214DF2222002F02AFAA4214DF28B
:104E4000232002F025FA02214DF2242002F020FA5C
:104E5000B7214DF2252002F01BFA02214DF2262047
:104E600002F016FACF214DF2272002F011FA0221AA
:104E70004DF2282002F00CFADE214DF2292002F03A
:104E800007FA02214DF22A2002F002FAF2214DF235
:104E90002B2002F0FDF902214DF22C2002F0F8F94E
:104EA000FE214DF22D2002F0F3F903214DF22E20C8
:104EB00002F0EEF910214DF22F2002F0E9F9032162
:104EC0004DF2302002F0E4F933214DF2312002F0AE
:104ED000DFF903214DF2322002F0DAF96D214DF2B3
:104EE000332002F0D5F900214FF4534002F0D0F9FD
:104EF00033214DF2013002F0CBF900214DF20230A6
:104F000002F0C6F934214DF2033002F0C1F900215C
:104F10004DF2043002F0BCF93A214DF2053002F0B6
:104F2000B7F900214DF2063002F0B2F94A214DF2F4
:104F3000073002F0ADF900214DF2083002F0A8F977
:104F40005C214DF2093002F0A3F900214DF20A3044
:104F500002F09EF981214DF20B3002F099F9002107
:104F60004DF20C3002F094F9A6214DF20D3002F012
:104F70008FF900214DF20E3002F08AF9E5214DF251
:104F80000F3002F085F901214DF2103002F080F966
:104F900013214DF2113002F07BF901214DF2123054
:104FA00002F076F954214DF2133002F071F901212B
:104FB0004DF2143002F06CF982214DF2153002F0FE
:104FC00067F901214DF2163002F062F9CA214DF263
:104FD000173002F05DF902214DF2183002F058F955
:104FE00000214DF2193002F053F902214DF21A302E
:104FF00002F04EF901214DF21B3002F049F9022175
:105000004DF21C3002F044F934214DF21D3002F013
:105010003FF902214DF21E3002F03AF967214DF2BC
:105020001F3002F035F902214DF2203002F030F944
:1050300084214DF2213002F02BF902214DF2223071
:1050400002F026F9A4214DF2233002F021F90221C9
:105050004DF2243002F01CF9B7214DF2253002F058
:1050600017F902214DF2263002F012F9CF214DF24C
:10507000273002F00DF902214DF2283002F008F934
:10508000DE214DF2293002F003F902214DF22A30DF
:1050900002F0FEF8F2214DF22B3002F0F9F8022175
:1050A0004DF22C3002F0F4F8FE214DF22D3002F0DA
:1050B000EFF803214DF22E3002F0EAF810214DF204
:1050C0002F3002F0E5F803214DF2303002F0E0F825
:1050D00033214DF2313002F0DBF803214DF2323052
:1050E00002F0D6F86D214DF2333002F0D1F80021F4
:1050F0004FF4544002F0CCF833214DF2014002F05D
:10510000C7F800214DF2024002F0C2F834214DF2FE
:10511000034002F0BDF800214DF2044002F0B8F85F
:105120003A214DF2054002F0B3F800214DF206405D
:1051300002F0AEF84A214DF2074002F0A9F8002132
:105140004DF2084002F0A4F85C214DF2094002F053
:105150009FF800214DF20A4002F09AF881214DF2A9
:105160000B4002F095F800214DF20C4002F090F84F
:10517000A6214DF20D4002F08BF800214DF20E40B9
:1051800002F086F8E5214DF20F4002F081F801218E
:105190004DF2104002F07CF813214DF2114002F064
:1051A00077F801214DF2124002F072F854214DF2CD
:1051B000134002F06DF801214DF2144002F068F83E
:1051C00082214DF2154002F063F801214DF21640A4
:1051D00002F05EF8CA214DF2174002F059F80221A0
:1051E0004DF2184002F054F800214DF2194002F03F
:1051F0004FF802214DF21A4002F04AF801214DF217
:105200001B4002F045F800E004E302214DF21C408F
:1052100002F03EF834214DF21D4002F039F802212F
:105220004DF21E4002F034F867214DF21F4002F0AB
:105230002FF802214DF2204002F02AF884214DF28D
:10524000214002F025F802214DF2224002F020F820
:10525000A4214DF2234002F01BF802214DF224401C
:1052600002F016F8B7214DF2254002F011F80221A4
:105270004DF2264002F00CF8CF214DF2274002F00B
:1052800007F802214DF2284002F002F8DE214DF22B
:10529000294001F0FDFF02214DF22A4001F0F8FF04
:1052A000F2214DF22B4001F0F3FF02214DF22C4090
:1052B00001F0EEFFFE214DF22D4001F0E9FF032148
:1052C0004DF22E4001F0E4FF10214DF22F4001F08D
:1052D000DFFF03214DF2304001F0DAFF33214DF2C0
:1052E000314001F0D5FF03214DF2324001F0D0FFF3
:1052F0006D214DF2334001F0CBFF00214FF45540BA
:1053000001F0C6FF33214DF2015001F0C1FF002131
:105310004DF2025001F0BCFF34214DF2035001F078
:10532000B7FF00214DF2045001F0B2FF3A214DF2D7
:10533000055001F0ADFF00214DF2065001F0A8FF2D
:105340004A214DF2075001F0A3FF00214DF2085011
:1053500001F09EFF5C214DF2095001F099FF002100
:105360004DF20A5001F094FF81214DF20B5001F0F3
:105370008FFF00214DF20C5001F08AFFA6214DF263
:105380000D5001F085FF00214DF20E5001F080FF1D
:10539000E5214DF20F5001F07BFF01214DF210503D
:1053A00001F076FF13214DF2115001F071FF012140
:1053B0004DF2125001F06CFF54214DF2135001F0E8
:1053C00067FF01214DF2145001F062FF82214DF27E
:1053D000155001F05DFF01214DF2165001F058FF0C
:1053E000CA214DF2175001F053FF02214DF218501F
:1053F00001F04EFF00214DF2195001F049FF02214A
:105400004DF21A5001F044FF01214DF21B5001F002
:105410003FFF02214DF21C5001F03AFF34214DF2C2
:105420001D5001F035FF02214DF21E5001F030FFFA
:1054300067214DF21F5001F02BFF02214DF2205049
:1054400001F026FF84214DF2215001F021FF0221BD
:105450004DF2225001F01CFFA4214DF2235001F027
:1054600017FF02214DF2245001F012FFB7214DF237
:10547000255001F00DFF02214DF2265001F008FFEA
:10548000CF214DF2275001F003FF02214DF22850A9
:1054900001F0FEFEDE214DF2295001F0F9FE02215D
:1054A0004DF22A5001F0F4FEF2214DF22B5001F0A2
:1054B000EFFE02214DF22C5001F0EAFEFE214DF2EA
:1054C0002D5001F0E5FE03214DF22E5001F0E0FEDB
:1054D00010214DF22F5001F0DBFE03214DF2305030
:1054E00001F0D6FE33214DF2315001F0D1FE0321FF
:1054F0004DF2325001F0CCFE6D214DF2335001F0EF
:10550000C7FE00214FF4564001F0C2FE33214DF298
:10551000016001F0BDFE00214DF2026001F0B8FE15
:1055200034214DF2036001F0B3FE00214DF204601E
:1055300001F0AEFE3A214DF2056001F0A9FE002116
:105540004DF2066001F0A4FE4A214DF2076001F021
:105550009FFE00214DF2086001F09AFE5C214DF2A1
:10556000096001F095FE00214DF20A6001F090FE05
:1055700081214DF20B6001F08BFE00214DF20C6099
:1055800001F086FEA6214DF20D6001F081FE0021A2
:105590004DF20E6001F07CFEE5214DF20F6001F04E
:1055A00077FE01214DF2106001F072FE13214DF2E1
:1055B000116001F06DFE01214DF2126001F068FEF4
:1055C00054214DF2136001F063FE01214DF214608D
:1055D00001F05EFE82214DF2156001F059FE0121BD
:1055E0004DF2166001F054FECA214DF2176001F031
:1055F0004FFE02214DF2186001F04AFE00214DF2EB
:10560000196001F045FE02214DF21A6001F040FEE2
:1056100001214DF21B6001F03BFE02214DF21C60A6
:1056200001F036FE34214DF21D6001F031FE022101
:105630004DF21E6001F02CFE67214DF21F6001F05B
:1056400027FE02214DF2206001F022FE84214DF25E
:10565000216001F01DFE02214DF2226001F018FED2
:10566000A4214DF2236001F013FE02214DF22460CB
:1056700001F00EFEB7214DF2256001F009FE022176
:105680004DF2266001F004FECF214DF2276001F0BB
:10569000FFFD02214DF2286001F0FAFDDE214DF2FE
:1056A000296001F0F5FD02214DF22A6001F0F0FDC4
:1056B000F2214DF22B6001F0EBFD02214DF22C6046
:1056C00001F0E6FDFE214DF22D6001F0E1FD032128
:1056D0004DF22E6001F0DCFD10214DF22F6001F043
:1056E000D7FD03214DF2306001F0D2FD33214DF2A0
:1056F000316001F0CDFD03214DF2326001F0C8FDB3
:105700006D214DF2336001F0C3FD55214FF470401F
:1057100001F0BEFDAA214FF2010001F0B9FD5221B6
:105720004FF2020001F0B4FD08214FF2030001F036
:10573000AFFD00214FF2040001F0AAFDCC214FF48F
:10574000314001F0A5FD00214BF2011001F0A0FD58
:1057500005214FF4364001F09BFD70214FF4374096
:1057600001F096FD70214BF2017001F091FD0121D5
:105770004FF4384001F08CFD03214BF6010001F09D
:1057800087FD03214BF6020001F082FD03214BF659
:10579000030001F07DFD02214FF43C4001F078FD53
:1057A00000214BF6014001F073FD00214BF6024051
:1057B00001F06EFDD0214FF4494001F069FD022156
:1057C0004CF6011001F064FD50214CF6021001F07E
:1057D0005FFD50214CF6031001F05AFD50214CF6AC
:1057E000041001F055FD00214FF4545001F050FD1C
:1057F00055214FF4685001F04BFD4FF4885001F0F3
:1058000031FD78200AF074FB4FF4245001F02AFD9A
:1058100001F05EB9FE48808849F2253188427DD189
:1058200047F6F001E52001F033FD4FF480710120CF
:1058300001F02EFD4FF4E061022001F029FD41F25C
:105840003001032001F024FD0021042001F020FD9F
:1058500040F20221082001F01BFD0021092001F087
:1058600017FD00210A2001F013FD00210C2001F09A
:105870000FFD00210D2001F00BFD00210F2001F094
:1058800007FD0021102001F003FD0721112001F088
:10589000FFFC0021122001F0FBFC0021132001F08D
:1058A000F7FC0021072001F0F3FC41F29061102089
:1058B00001F0EEFC40F22721112001F0E9FC9D21CE
:1058C000122001F0E5FC4FF4C851132001F0E0FC78
:1058D0002521292001F0DCFC0D212B2001F0D8FC32
:1058E0000721302001F0D4FC40F20331312001F0D7
:1058F000CFFC0321322001F0CBFC40F20621352001
:1059000001F0C6FC0821362001F0C2FC40F206413D
:10591000372001F0BDFC4FF4417100E058E0382021
:1059200001F0B6FC0721392001F0B2FC40F202611F
:105930003C2001F0ADFC08213D2001F0A9FC002134
:10594000502001F0A5FCEF21512001F0A1FC002125
:10595000522001F09DFC40F23F11532001F098FCD1
:105960004FF42741602001F093FC0121612001F0F8
:105970008FFC00216A2001F08BFC0021802001F0C7
:1059800087FC0021812001F083FC0021822001F0AE
:105990007FFC0021832001F07BFC0021842001F0AA
:1059A00077FC0021852001F073FC1021902001F08C
:1059B0006FFC4FF4C061922001F06AFC40F2331199
:1059C000072001F065FC2221002001F061FC1FE7A7
:1059D0008F48808849F2283188427DD141F28F0179
:1059E000EC2001F055FC41F23421EF2001F050FC95
:1059F0004FF48071012001F04BFC4FF4E061022074
:105A000001F046FC41F23001032001F041FC00218D
:105A1000042001F03DFC40F20221082001F038FC96
:105A20000021092001F034FC00210A2001F030FCA3
:105A300001210C2001F02CFC00210D2001F028FC9C
:105A400000210F2001F024FC0021102001F020FC97
:105A50000721112001F01CFC0021122001F018FC8C
:105A60000021132001F014FC0121072001F010FC9B
:105A700032200AF021FA41F29041102001F008FC96
:105A800040F22721112001F003FC32200AF014FA21
:105A90008A21122001F0FCFB32200AF00DFA4FF4AB
:105AA000D051132001F0F4FB0621292001F0F0FB76
:105AB0000D212B2001F0ECFB32200AF0FDF9002132
:105AC000202001F0E5FB0021212001F0E1FB322044
:105AD0000AF0F2F9002100E075E0302001F0D8FB77
